:100000000C9472000C9493000C9493000C94930045
:100010000C9493000C9493000C9493000C94930014
:100020000C9493000C9493000C9493000C94930004
:100030000C9493000C9493000C9493000C949300F4
:100040000C9493000C9493000C9493000C949300E4
:100050000C9493000C9493000C9493000C949300D4
:100060000C9493000C9417030C9493000C9493003D
:100070000C9493000C9493000C9493000C949300B4
:100080000C9493000C9493000C9493000C949300A4
:100090000C9493000C9493000C9493000C94930094
:1000A0000C9493000C9493000C9493000C94930084
:1000B0000C9493000C9493000C9493000C94930074
:1000C0000C9493000C9493000C9493000C94930064
:1000D0000C9493000C9493000C9493000C94930054
:1000E0000C94930011241FBECFEFD1E2DEBFCDBF31
:1000F00000E00CBF12E0A0E0B2E0E6E2F7E000E0D2
:100100000BBF02C007900D92A030B107D9F712E0E3
:10011000A0E0B2E001C01D92A431B107E1F70E9456
:1001200076030C9491030C94000089EF90E0019702
:10013000F1F700C000004098419880E388B9429AE6
:10014000E1EEF4E03197F1F700C000004298E9EFEA
:10015000F0E03197F1F700C000004098419888B96D
:10016000429AE1EEF4E03197F1F700C000004298C6
:10017000E9EFF0E03197F1F700C0000040984198B6
:1001800088B9429A81EE94E00197F1F700C000002F
:100190004298E9EFF0E03197F1F700C00000409895
:1001A000419880E288B9429A81EE94E00197F1F794
:1001B00000C000004298089598B19F7098B998B116
:1001C000282F207F922B98B940984198429AE1EECF
:1001D000F4E03197F1F700C00000429898B19F70A9
:1001E00098B998B18295807F892B88B940984198B9
:1001F000429A81EE94E00197F1F700C00000429826
:10020000089589EF90E00197F1F700C0000088E2BF
:100210000E94DC0081E00E94DC0086E00E94DC009D
:100220008EE00E94DC0080E80E94DC00089598B116
:100230009F7098B998B1282F207F922B98B9409A37
:100240004198429AE1EEF4E03197F1F700C00000E6
:10025000429898B19F7098B998B18295807F892B08
:1002600088B9409A4198429A81EE94E00197F1F75B
:1002700000C000004298089580E80E94DC000895C4
:10028000CF93DF93EC018881882331F021960E947F
:10029000170189918823D9F7DF91CF910895823092
:1002A00079F0833018F48130C9F405C0833069F0E7
:1002B0008430A1F40FC0862F81580E94DC0008957D
:1002C000862F81540E94DC000895862F8D560E944F
:1002D000DC000895862F8D520E94DC0008950F9354
:1002E0001F93CF93DF938A01E901882311F06623DE
:1002F00019F40E943C0102C00E944F01C530D10593
:1003000071F4C80160E177E20E947D03CB01C096E1
:1003100090930502809304020E94170103C0C43029
:10032000D105B9F4C80168EE73E00E947D03CB01EA
:1003300070930702609306026AE070E00E947D03FA
:10034000C09690931302809312020E94170181E0DD
:1003500001C080E0C330D10511F08130B1F4C80193
:1003600064E670E00E947D03CB0170930702609306
:1003700006026AE070E00E947D03C09690930F022F
:1003800080930E020E94170181E0C230D10511F066
:100390008130B1F42AE030E0C801B9010E947D0348
:1003A000CB017093070260930602B9010E947D039E
:1003B000C09690930C0280930B020E94170181E07B
:1003C000C130D10511F0813061F4C8016AE070E0FC
:1003D0000E947D03C09690931102809310020E94A8
:1003E0001701C630D1051CF085E40E941701DF918A
:1003F000CF911F910F91089587B1876F87B988B109
:10040000807888B9089510BA11BA10920701109235
:1004100008010895E1E2F1E010828FEF8093250159
:1004200091E0909324011092290180932801109269
:100430002B0180932A0110922D0180932C0189EACF
:10044000809320018BE080830895EAE7F0E010823A
:1004500010927B0080E280937C0080E880BF86E879
:1004600080830895883018F098E090937B0087701F
:10047000806280937C00EAE7F0E080818064808382
:10048000808184FFFDCF80917900EAE7F0E09081E0
:100490009061908310927B000895CF93DF93D82FC3
:1004A000C62F842F0E943202482F809308028D2F7E
:1004B0006C2F50E023E030E00E946F01DF91CF917C
:1004C00008958093280160932A0108953B9A4398E8
:1004D000089581B18F6081B982B1807F82B9EAE0ED
:1004E000F1E0808188618083EBE0F1E080818861C8
:1004F0008083089592B1907F8F70982B92B9089560
:1005000086E00E947A02089580E00E947A020895AF
:1005100089E00E947A02089585E00E947A02089597
:100520008AE00E947A0208950E94FC010E94030260
:100530000E9469020E946602089586B1886088B9A7
:10054000089586B1877F88B90895E1ECF0E01082C4
:100550001092C00086E08093C2008FE58093C400B3
:100560001092C50088E98083089583E00E943202DA
:100570008093020282E00E9432028093010281E0B5
:100580000E943202809300021092030281E061E037
:1005900043E00E944D0281E065E042E00E944D028E
:1005A00081E069E041E00E944D02809101028832C1
:1005B00048F481E0809303020E94800286E966E9A4
:1005C0000E94610280910202893268F080910302E8
:1005D000882349F481E0809303020E94800282E82C
:1005E00062E30E94610280910002893268F080918A
:1005F0000302882349F481E0809303020E94800271
:1006000082E362E80E94610280910102893270F007
:1006100080910202893250F080910002893230F0DC
:100620000E94800280E060E00E94610208951F92B3
:100630000F920FB60F920BB60F9211242F933F9388
:100640004F935F936F937F938F939F93AF93BF93DA
:10065000EF93FF93E6ECF0E0808180930D028083BE
:10066000873711F40E94B50280910D02833711F48F
:100670000E94880280910D02813611F40E948C0242
:1006800080910D02843611F40E94900280910D0237
:10069000803211F40E94840280910D02813711F49E
:1006A0000E949D0280910D02823711F40E94A102E6
:1006B000FF91EF91BF91AF919F918F917F916F913A
:1006C0005F914F913F912F910F900BBE0F900FBEF6
:1006D0000F901F901895F8940E9494020E94A50212
:1006E0000E9425020E940A02789408950E946B03DA
:1006F0000E9495000E940101FFCFAA1BBB1B51E184
:1007000007C0AA1FBB1FA617B70710F0A61BB70B81
:10071000881F991F5A95A9F780959095BC01CD0126
:060720000895F894FFCFDC
:00000001FF
